{
  "_format": "hh-sol-artifact-1",
  "contractName": "MileHighFrame",
  "sourceName": "contracts/MileHigh.sol",
  "abi": [
    {
      "inputs": [
        {
          "internalType": "address",
          "name": "initialOwner",
          "type": "address"
        }
      ],
      "stateMutability": "nonpayable",
      "type": "constructor"
    },
    {
      "inputs": [
        {
          "internalType": "address",
          "name": "sender",
          "type": "address"
        },
        {
          "internalType": "uint256",
          "name": "tokenId",
          "type": "uint256"
        },
        {
          "internalType": "address",
          "name": "owner",
          "type": "address"
        }
      ],
      "name": "ERC721IncorrectOwner",
      "type": "error"
    },
    {
      "inputs": [
        {
          "internalType": "address",
          "name": "operator",
          "type": "address"
        },
        {
          "internalType": "uint256",
          "name": "tokenId",
          "type": "uint256"
        }
      ],
      "name": "ERC721InsufficientApproval",
      "type": "error"
    },
    {
      "inputs": [
        {
          "internalType": "address",
          "name": "approver",
          "type": "address"
        }
      ],
      "name": "ERC721InvalidApprover",
      "type": "error"
    },
    {
      "inputs": [
        {
          "internalType": "address",
          "name": "operator",
          "type": "address"
        }
      ],
      "name": "ERC721InvalidOperator",
      "type": "error"
    },
    {
      "inputs": [
        {
          "internalType": "address",
          "name": "owner",
          "type": "address"
        }
      ],
      "name": "ERC721InvalidOwner",
      "type": "error"
    },
    {
      "inputs": [
        {
          "internalType": "address",
          "name": "receiver",
          "type": "address"
        }
      ],
      "name": "ERC721InvalidReceiver",
      "type": "error"
    },
    {
      "inputs": [
        {
          "internalType": "address",
          "name": "sender",
          "type": "address"
        }
      ],
      "name": "ERC721InvalidSender",
      "type": "error"
    },
    {
      "inputs": [
        {
          "internalType": "uint256",
          "name": "tokenId",
          "type": "uint256"
        }
      ],
      "name": "ERC721NonexistentToken",
      "type": "error"
    },
    {
      "anonymous": false,
      "inputs": [
        {
          "indexed": true,
          "internalType": "address",
          "name": "owner",
          "type": "address"
        },
        {
          "indexed": true,
          "internalType": "address",
          "name": "approved",
          "type": "address"
        },
        {
          "indexed": true,
          "internalType": "uint256",
          "name": "tokenId",
          "type": "uint256"
        }
      ],
      "name": "Approval",
      "type": "event"
    },
    {
      "anonymous": false,
      "inputs": [
        {
          "indexed": true,
          "internalType": "address",
          "name": "owner",
          "type": "address"
        },
        {
          "indexed": true,
          "internalType": "address",
          "name": "operator",
          "type": "address"
        },
        {
          "indexed": false,
          "internalType": "bool",
          "name": "approved",
          "type": "bool"
        }
      ],
      "name": "ApprovalForAll",
      "type": "event"
    },
    {
      "anonymous": false,
      "inputs": [
        {
          "indexed": false,
          "internalType": "uint256",
          "name": "_fromTokenId",
          "type": "uint256"
        },
        {
          "indexed": false,
          "internalType": "uint256",
          "name": "_toTokenId",
          "type": "uint256"
        }
      ],
      "name": "BatchMetadataUpdate",
      "type": "event"
    },
    {
      "anonymous": false,
      "inputs": [
        {
          "indexed": false,
          "internalType": "uint256",
          "name": "_tokenId",
          "type": "uint256"
        }
      ],
      "name": "MetadataUpdate",
      "type": "event"
    },
    {
      "anonymous": false,
      "inputs": [
        {
          "indexed": true,
          "internalType": "address",
          "name": "from",
          "type": "address"
        },
        {
          "indexed": true,
          "internalType": "address",
          "name": "to",
          "type": "address"
        },
        {
          "indexed": true,
          "internalType": "uint256",
          "name": "tokenId",
          "type": "uint256"
        }
      ],
      "name": "Transfer",
      "type": "event"
    },
    {
      "inputs": [
        {
          "internalType": "address",
          "name": "to",
          "type": "address"
        },
        {
          "internalType": "uint256",
          "name": "tokenId",
          "type": "uint256"
        }
      ],
      "name": "approve",
      "outputs": [],
      "stateMutability": "nonpayable",
      "type": "function"
    },
    {
      "inputs": [
        {
          "internalType": "address",
          "name": "owner",
          "type": "address"
        }
      ],
      "name": "balanceOf",
      "outputs": [
        {
          "internalType": "uint256",
          "name": "",
          "type": "uint256"
        }
      ],
      "stateMutability": "view",
      "type": "function"
    },
    {
      "inputs": [
        {
          "internalType": "uint256",
          "name": "tokenId",
          "type": "uint256"
        }
      ],
      "name": "getApproved",
      "outputs": [
        {
          "internalType": "address",
          "name": "",
          "type": "address"
        }
      ],
      "stateMutability": "view",
      "type": "function"
    },
    {
      "inputs": [
        {
          "internalType": "address",
          "name": "owner",
          "type": "address"
        },
        {
          "internalType": "address",
          "name": "operator",
          "type": "address"
        }
      ],
      "name": "isApprovedForAll",
      "outputs": [
        {
          "internalType": "bool",
          "name": "",
          "type": "bool"
        }
      ],
      "stateMutability": "view",
      "type": "function"
    },
    {
      "inputs": [
        {
          "internalType": "address",
          "name": "recipient",
          "type": "address"
        },
        {
          "internalType": "string",
          "name": "tokenURI",
          "type": "string"
        }
      ],
      "name": "mintFrame",
      "outputs": [
        {
          "internalType": "uint256",
          "name": "",
          "type": "uint256"
        }
      ],
      "stateMutability": "nonpayable",
      "type": "function"
    },
    {
      "inputs": [],
      "name": "name",
      "outputs": [
        {
          "internalType": "string",
          "name": "",
          "type": "string"
        }
      ],
      "stateMutability": "view",
      "type": "function"
    },
    {
      "inputs": [],
      "name": "owner",
      "outputs": [
        {
          "internalType": "address",
          "name": "",
          "type": "address"
        }
      ],
      "stateMutability": "view",
      "type": "function"
    },
    {
      "inputs": [
        {
          "internalType": "uint256",
          "name": "tokenId",
          "type": "uint256"
        }
      ],
      "name": "ownerOf",
      "outputs": [
        {
          "internalType": "address",
          "name": "",
          "type": "address"
        }
      ],
      "stateMutability": "view",
      "type": "function"
    },
    {
      "inputs": [
        {
          "internalType": "address",
          "name": "from",
          "type": "address"
        },
        {
          "internalType": "address",
          "name": "to",
          "type": "address"
        },
        {
          "internalType": "uint256",
          "name": "tokenId",
          "type": "uint256"
        }
      ],
      "name": "safeTransferFrom",
      "outputs": [],
      "stateMutability": "nonpayable",
      "type": "function"
    },
    {
      "inputs": [
        {
          "internalType": "address",
          "name": "from",
          "type": "address"
        },
        {
          "internalType": "address",
          "name": "to",
          "type": "address"
        },
        {
          "internalType": "uint256",
          "name": "tokenId",
          "type": "uint256"
        },
        {
          "internalType": "bytes",
          "name": "data",
          "type": "bytes"
        }
      ],
      "name": "safeTransferFrom",
      "outputs": [],
      "stateMutability": "nonpayable",
      "type": "function"
    },
    {
      "inputs": [
        {
          "internalType": "address",
          "name": "operator",
          "type": "address"
        },
        {
          "internalType": "bool",
          "name": "approved",
          "type": "bool"
        }
      ],
      "name": "setApprovalForAll",
      "outputs": [],
      "stateMutability": "nonpayable",
      "type": "function"
    },
    {
      "inputs": [
        {
          "internalType": "bytes4",
          "name": "interfaceId",
          "type": "bytes4"
        }
      ],
      "name": "supportsInterface",
      "outputs": [
        {
          "internalType": "bool",
          "name": "",
          "type": "bool"
        }
      ],
      "stateMutability": "view",
      "type": "function"
    },
    {
      "inputs": [],
      "name": "symbol",
      "outputs": [
        {
          "internalType": "string",
          "name": "",
          "type": "string"
        }
      ],
      "stateMutability": "view",
      "type": "function"
    },
    {
      "inputs": [
        {
          "internalType": "uint256",
          "name": "tokenId",
          "type": "uint256"
        }
      ],
      "name": "tokenURI",
      "outputs": [
        {
          "internalType": "string",
          "name": "",
          "type": "string"
        }
      ],
      "stateMutability": "view",
      "type": "function"
    },
    {
      "inputs": [
        {
          "internalType": "address",
          "name": "from",
          "type": "address"
        },
        {
          "internalType": "address",
          "name": "to",
          "type": "address"
        },
        {
          "internalType": "uint256",
          "name": "tokenId",
          "type": "uint256"
        }
      ],
      "name": "transferFrom",
      "outputs": [],
      "stateMutability": "nonpayable",
      "type": "function"
    }
  ],
  "bytecode": "0x608060405260006007553480156200001657600080fd5b5060405162002a3c38038062002a3c83398181016040528101906200003c919062000180565b6040518060400160405280600d81526020017f4d696c65486967684672616d65000000000000000000000000000000000000008152506040518060400160405280600481526020017f4d484643000000000000000000000000000000000000000000000000000000008152508160009081620000b991906200042c565b508060019081620000cb91906200042c565b50505080600860006101000a81548173ffffffffffffffffffffffffffffffffffffffff021916908373ffffffffffffffffffffffffffffffffffffffff1602179055505062000513565b600080fd5b600073ffffffffffffffffffffffffffffffffffffffff82169050919050565b600062000148826200011b565b9050919050565b6200015a816200013b565b81146200016657600080fd5b50565b6000815190506200017a816200014f565b92915050565b60006020828403121562000199576200019862000116565b5b6000620001a98482850162000169565b91505092915050565b600081519050919050565b7f4e487b7100000000000000000000000000000000000000000000000000000000600052604160045260246000fd5b7f4e487b7100000000000000000000000000000000000000000000000000000000600052602260045260246000fd5b600060028204905060018216806200023457607f821691505b6020821081036200024a5762000249620001ec565b5b50919050565b60008190508160005260206000209050919050565b60006020601f8301049050919050565b600082821b905092915050565b600060088302620002b47fffffffffffffffffffffffffffffffffffffffffffffffffffffffffffffffff8262000275565b620002c0868362000275565b95508019841693508086168417925050509392505050565b6000819050919050565b6000819050919050565b60006200030d620003076200030184620002d8565b620002e2565b620002d8565b9050919050565b6000819050919050565b6200032983620002ec565b62000341620003388262000314565b84845462000282565b825550505050565b600090565b6200035862000349565b620003658184846200031e565b505050565b5b818110156200038d57620003816000826200034e565b6001810190506200036b565b5050565b601f821115620003dc57620003a68162000250565b620003b18462000265565b81016020851015620003c1578190505b620003d9620003d08562000265565b8301826200036a565b50505b505050565b600082821c905092915050565b60006200040160001984600802620003e1565b1980831691505092915050565b60006200041c8383620003ee565b9150826002028217905092915050565b6200043782620001b2565b67ffffffffffffffff811115620004535762000452620001bd565b5b6200045f82546200021b565b6200046c82828562000391565b600060209050601f831160018114620004a457600084156200048f578287015190505b6200049b85826200040e565b8655506200050b565b601f198416620004b48662000250565b60005b82811015620004de57848901518255600182019150602085019450602081019050620004b7565b86831015620004fe5784890151620004fa601f891682620003ee565b8355505b6001600288020188555050505b505050505050565b61251980620005236000396000f3fe608060405234801561001057600080fd5b50600436106100f55760003560e01c806370a0823111610097578063b88d4fde11610066578063b88d4fde14610284578063c87b56dd146102a0578063e985e9c5146102d0578063fd43d07914610300576100f5565b806370a08231146101fc5780638da5cb5b1461022c57806395d89b411461024a578063a22cb46514610268576100f5565b8063095ea7b3116100d3578063095ea7b31461017857806323b872dd1461019457806342842e0e146101b05780636352211e146101cc576100f5565b806301ffc9a7146100fa57806306fdde031461012a578063081812fc14610148575b600080fd5b610114600480360381019061010f91906118f3565b610330565b604051610121919061193b565b60405180910390f35b610132610391565b60405161013f91906119e6565b60405180910390f35b610162600480360381019061015d9190611a3e565b610423565b60405161016f9190611aac565b60405180910390f35b610192600480360381019061018d9190611af3565b61043f565b005b6101ae60048036038101906101a99190611b33565b610455565b005b6101ca60048036038101906101c59190611b33565b610557565b005b6101e660048036038101906101e19190611a3e565b610577565b6040516101f39190611aac565b60405180910390f35b61021660048036038101906102119190611b86565b610589565b6040516102239190611bc2565b60405180910390f35b610234610643565b6040516102419190611aac565b60405180910390f35b610252610669565b60405161025f91906119e6565b60405180910390f35b610282600480360381019061027d9190611c09565b6106fb565b005b61029e60048036038101906102999190611d7e565b610711565b005b6102ba60048036038101906102b59190611a3e565b61072e565b6040516102c791906119e6565b60405180910390f35b6102ea60048036038101906102e59190611e01565b610841565b6040516102f7919061193b565b60405180910390f35b61031a60048036038101906103159190611ee2565b6108d5565b6040516103279190611bc2565b60405180910390f35b6000634906490660e01b7bffffffffffffffffffffffffffffffffffffffffffffffffffffffff1916827bffffffffffffffffffffffffffffffffffffffffffffffffffffffff1916148061038a57506103898261099f565b5b9050919050565b6060600080546103a090611f6d565b80601f01602080910402602001604051908101604052809291908181526020018280546103cc90611f6d565b80156104195780601f106103ee57610100808354040283529160200191610419565b820191906000526020600020905b8154815290600101906020018083116103fc57829003601f168201915b5050505050905090565b600061042e82610a81565b5061043882610b09565b9050919050565b610451828261044c610b46565b610b4e565b5050565b600073ffffffffffffffffffffffffffffffffffffffff168273ffffffffffffffffffffffffffffffffffffffff16036104c75760006040517f64a0ae920000000000000000000000000000000000000000000000000000000081526004016104be9190611aac565b60405180910390fd5b60006104db83836104d6610b46565b610b60565b90508373ffffffffffffffffffffffffffffffffffffffff168173ffffffffffffffffffffffffffffffffffffffff1614610551578382826040517f64283d7b00000000000000000000000000000000000000000000000000000000815260040161054893929190611f9e565b60405180910390fd5b50505050565b61057283838360405180602001604052806000815250610711565b505050565b600061058282610a81565b9050919050565b60008073ffffffffffffffffffffffffffffffffffffffff168273ffffffffffffffffffffffffffffffffffffffff16036105fc5760006040517f89c62b640000000000000000000000000000000000000000000000000000000081526004016105f39190611aac565b60405180910390fd5b600360008373ffffffffffffffffffffffffffffffffffffffff1673ffffffffffffffffffffffffffffffffffffffff168152602001908152602001600020549050919050565b600860009054906101000a900473ffffffffffffffffffffffffffffffffffffffff1681565b60606001805461067890611f6d565b80601f01602080910402602001604051908101604052809291908181526020018280546106a490611f6d565b80156106f15780601f106106c6576101008083540402835291602001916106f1565b820191906000526020600020905b8154815290600101906020018083116106d457829003601f168201915b5050505050905090565b61070d610706610b46565b8383610d7a565b5050565b61071c848484610455565b61072884848484610ee9565b50505050565b606061073982610a81565b50600060066000848152602001908152602001600020805461075a90611f6d565b80601f016020809104026020016040519081016040528092919081815260200182805461078690611f6d565b80156107d35780601f106107a8576101008083540402835291602001916107d3565b820191906000526020600020905b8154815290600101906020018083116107b657829003601f168201915b5050505050905060006107e46110a0565b905060008151036107f957819250505061083c565b60008251111561082e578082604051602001610816929190612011565b6040516020818303038152906040529250505061083c565b610837846110b7565b925050505b919050565b6000600560008473ffffffffffffffffffffffffffffffffffffffff1673ffffffffffffffffffffffffffffffffffffffff16815260200190815260200160002060008373ffffffffffffffffffffffffffffffffffffffff1673ffffffffffffffffffffffffffffffffffffffff16815260200190815260200160002060009054906101000a900460ff16905092915050565b6000600860009054906101000a900473ffffffffffffffffffffffffffffffffffffffff1673ffffffffffffffffffffffffffffffffffffffff163373ffffffffffffffffffffffffffffffffffffffff1614610967576040517f08c379a000000000000000000000000000000000000000000000000000000000815260040161095e906120a7565b60405180910390fd5b6000600160075461097891906120f6565b90506109848482611120565b61098e8184611219565b806007819055508091505092915050565b60007f80ac58cd000000000000000000000000000000000000000000000000000000007bffffffffffffffffffffffffffffffffffffffffffffffffffffffff1916827bffffffffffffffffffffffffffffffffffffffffffffffffffffffff19161480610a6a57507f5b5e139f000000000000000000000000000000000000000000000000000000007bffffffffffffffffffffffffffffffffffffffffffffffffffffffff1916827bffffffffffffffffffffffffffffffffffffffffffffffffffffffff1916145b80610a7a5750610a7982611275565b5b9050919050565b600080610a8d836112df565b9050600073ffffffffffffffffffffffffffffffffffffffff168173ffffffffffffffffffffffffffffffffffffffff1603610b0057826040517f7e273289000000000000000000000000000000000000000000000000000000008152600401610af79190611bc2565b60405180910390fd5b80915050919050565b60006004600083815260200190815260200160002060009054906101000a900473ffffffffffffffffffffffffffffffffffffffff169050919050565b600033905090565b610b5b838383600161131c565b505050565b600080610b6c846112df565b9050600073ffffffffffffffffffffffffffffffffffffffff168373ffffffffffffffffffffffffffffffffffffffff1614610bae57610bad8184866114e1565b5b600073ffffffffffffffffffffffffffffffffffffffff168173ffffffffffffffffffffffffffffffffffffffff1614610c3f57610bf060008560008061131c565b6001600360008373ffffffffffffffffffffffffffffffffffffffff1673ffffffffffffffffffffffffffffffffffffffff168152602001908152602001600020600082825403925050819055505b600073ffffffffffffffffffffffffffffffffffffffff168573ffffffffffffffffffffffffffffffffffffffff1614610cc2576001600360008773ffffffffffffffffffffffffffffffffffffffff1673ffffffffffffffffffffffffffffffffffffffff168152602001908152602001600020600082825401925050819055505b846002600086815260200190815260200160002060006101000a81548173ffffffffffffffffffffffffffffffffffffffff021916908373ffffffffffffffffffffffffffffffffffffffff160217905550838573ffffffffffffffffffffffffffffffffffffffff168273ffffffffffffffffffffffffffffffffffffffff167fddf252ad1be2c89b69c2b068fc378daa952ba7f163c4a11628f55a4df523b3ef60405160405180910390a4809150509392505050565b600073ffffffffffffffffffffffffffffffffffffffff168273ffffffffffffffffffffffffffffffffffffffff1603610deb57816040517f5b08ba18000000000000000000000000000000000000000000000000000000008152600401610de29190611aac565b60405180910390fd5b80600560008573ffffffffffffffffffffffffffffffffffffffff1673ffffffffffffffffffffffffffffffffffffffff16815260200190815260200160002060008473ffffffffffffffffffffffffffffffffffffffff1673ffffffffffffffffffffffffffffffffffffffff16815260200190815260200160002060006101000a81548160ff0219169083151502179055508173ffffffffffffffffffffffffffffffffffffffff168373ffffffffffffffffffffffffffffffffffffffff167f17307eab39ab6107e8899845ad3d59bd9653f200f220920489ca2b5937696c3183604051610edc919061193b565b60405180910390a3505050565b60008373ffffffffffffffffffffffffffffffffffffffff163b111561109a578273ffffffffffffffffffffffffffffffffffffffff1663150b7a02610f2d610b46565b8685856040518563ffffffff1660e01b8152600401610f4f949392919061217f565b6020604051808303816000875af1925050508015610f8b57506040513d601f19601f82011682018060405250810190610f8891906121e0565b60015b61100f573d8060008114610fbb576040519150601f19603f3d011682016040523d82523d6000602084013e610fc0565b606091505b50600081510361100757836040517f64a0ae92000000000000000000000000000000000000000000000000000000008152600401610ffe9190611aac565b60405180910390fd5b805181602001fd5b63150b7a0260e01b7bffffffffffffffffffffffffffffffffffffffffffffffffffffffff1916817bffffffffffffffffffffffffffffffffffffffffffffffffffffffff19161461109857836040517f64a0ae9200000000000000000000000000000000000000000000000000000000815260040161108f9190611aac565b60405180910390fd5b505b50505050565b606060405180602001604052806000815250905090565b60606110c282610a81565b5060006110cd6110a0565b905060008151116110ed5760405180602001604052806000815250611118565b806110f7846115a5565b604051602001611108929190612011565b6040516020818303038152906040525b915050919050565b600073ffffffffffffffffffffffffffffffffffffffff168273ffffffffffffffffffffffffffffffffffffffff16036111925760006040517f64a0ae920000000000000000000000000000000000000000000000000000000081526004016111899190611aac565b60405180910390fd5b60006111a083836000610b60565b9050600073ffffffffffffffffffffffffffffffffffffffff168173ffffffffffffffffffffffffffffffffffffffff16146112145760006040517f73c6ac6e00000000000000000000000000000000000000000000000000000000815260040161120b9190611aac565b60405180910390fd5b505050565b8060066000848152602001908152602001600020908161123991906123b9565b507ff8e1a15aba9398e019f0b49df1a4fde98ee17ae345cb5f6b5e2c27f5033e8ce7826040516112699190611bc2565b60405180910390a15050565b60007f01ffc9a7000000000000000000000000000000000000000000000000000000007bffffffffffffffffffffffffffffffffffffffffffffffffffffffff1916827bffffffffffffffffffffffffffffffffffffffffffffffffffffffff1916149050919050565b60006002600083815260200190815260200160002060009054906101000a900473ffffffffffffffffffffffffffffffffffffffff169050919050565b80806113555750600073ffffffffffffffffffffffffffffffffffffffff168273ffffffffffffffffffffffffffffffffffffffff1614155b1561148957600061136584610a81565b9050600073ffffffffffffffffffffffffffffffffffffffff168373ffffffffffffffffffffffffffffffffffffffff16141580156113d057508273ffffffffffffffffffffffffffffffffffffffff168173ffffffffffffffffffffffffffffffffffffffff1614155b80156113e357506113e18184610841565b155b1561142557826040517fa9fbf51f00000000000000000000000000000000000000000000000000000000815260040161141c9190611aac565b60405180910390fd5b811561148757838573ffffffffffffffffffffffffffffffffffffffff168273ffffffffffffffffffffffffffffffffffffffff167f8c5be1e5ebec7d5bd14f71427d1e84f3dd0314c0f7b2291e5b200ac8c7c3b92560405160405180910390a45b505b836004600085815260200190815260200160002060006101000a81548173ffffffffffffffffffffffffffffffffffffffff021916908373ffffffffffffffffffffffffffffffffffffffff16021790555050505050565b6114ec838383611673565b6115a057600073ffffffffffffffffffffffffffffffffffffffff168373ffffffffffffffffffffffffffffffffffffffff160361156157806040517f7e2732890000000000000000000000000000000000000000000000000000000081526004016115589190611bc2565b60405180910390fd5b81816040517f177e802f00000000000000000000000000000000000000000000000000000000815260040161159792919061248b565b60405180910390fd5b505050565b6060600060016115b484611734565b01905060008167ffffffffffffffff8111156115d3576115d2611c53565b5b6040519080825280601f01601f1916602001820160405280156116055781602001600182028036833780820191505090505b509050600082602001820190505b600115611668578080600190039150507f3031323334353637383961626364656600000000000000000000000000000000600a86061a8153600a858161165c5761165b6124b4565b5b04945060008503611613575b819350505050919050565b60008073ffffffffffffffffffffffffffffffffffffffff168373ffffffffffffffffffffffffffffffffffffffff161415801561172b57508273ffffffffffffffffffffffffffffffffffffffff168473ffffffffffffffffffffffffffffffffffffffff1614806116ec57506116eb8484610841565b5b8061172a57508273ffffffffffffffffffffffffffffffffffffffff1661171283610b09565b73ffffffffffffffffffffffffffffffffffffffff16145b5b90509392505050565b600080600090507a184f03e93ff9f4daa797ed6e38ed64bf6a1f0100000000000000008310611792577a184f03e93ff9f4daa797ed6e38ed64bf6a1f0100000000000000008381611788576117876124b4565b5b0492506040810190505b6d04ee2d6d415b85acef810000000083106117cf576d04ee2d6d415b85acef810000000083816117c5576117c46124b4565b5b0492506020810190505b662386f26fc1000083106117fe57662386f26fc1000083816117f4576117f36124b4565b5b0492506010810190505b6305f5e1008310611827576305f5e100838161181d5761181c6124b4565b5b0492506008810190505b612710831061184c576127108381611842576118416124b4565b5b0492506004810190505b6064831061186f5760648381611865576118646124b4565b5b0492506002810190505b600a831061187e576001810190505b80915050919050565b6000604051905090565b600080fd5b600080fd5b60007fffffffff0000000000000000000000000000000000000000000000000000000082169050919050565b6118d08161189b565b81146118db57600080fd5b50565b6000813590506118ed816118c7565b92915050565b60006020828403121561190957611908611891565b5b6000611917848285016118de565b91505092915050565b60008115159050919050565b61193581611920565b82525050565b6000602082019050611950600083018461192c565b92915050565b600081519050919050565b600082825260208201905092915050565b60005b83811015611990578082015181840152602081019050611975565b60008484015250505050565b6000601f19601f8301169050919050565b60006119b882611956565b6119c28185611961565b93506119d2818560208601611972565b6119db8161199c565b840191505092915050565b60006020820190508181036000830152611a0081846119ad565b905092915050565b6000819050919050565b611a1b81611a08565b8114611a2657600080fd5b50565b600081359050611a3881611a12565b92915050565b600060208284031215611a5457611a53611891565b5b6000611a6284828501611a29565b91505092915050565b600073ffffffffffffffffffffffffffffffffffffffff82169050919050565b6000611a9682611a6b565b9050919050565b611aa681611a8b565b82525050565b6000602082019050611ac16000830184611a9d565b92915050565b611ad081611a8b565b8114611adb57600080fd5b50565b600081359050611aed81611ac7565b92915050565b60008060408385031215611b0a57611b09611891565b5b6000611b1885828601611ade565b9250506020611b2985828601611a29565b9150509250929050565b600080600060608486031215611b4c57611b4b611891565b5b6000611b5a86828701611ade565b9350506020611b6b86828701611ade565b9250506040611b7c86828701611a29565b9150509250925092565b600060208284031215611b9c57611b9b611891565b5b6000611baa84828501611ade565b91505092915050565b611bbc81611a08565b82525050565b6000602082019050611bd76000830184611bb3565b92915050565b611be681611920565b8114611bf157600080fd5b50565b600081359050611c0381611bdd565b92915050565b60008060408385031215611c2057611c1f611891565b5b6000611c2e85828601611ade565b9250506020611c3f85828601611bf4565b9150509250929050565b600080fd5b600080fd5b7f4e487b7100000000000000000000000000000000000000000000000000000000600052604160045260246000fd5b611c8b8261199c565b810181811067ffffffffffffffff82111715611caa57611ca9611c53565b5b80604052505050565b6000611cbd611887565b9050611cc98282611c82565b919050565b600067ffffffffffffffff821115611ce957611ce8611c53565b5b611cf28261199c565b9050602081019050919050565b82818337600083830152505050565b6000611d21611d1c84611cce565b611cb3565b905082815260208101848484011115611d3d57611d3c611c4e565b5b611d48848285611cff565b509392505050565b600082601f830112611d6557611d64611c49565b5b8135611d75848260208601611d0e565b91505092915050565b60008060008060808587031215611d9857611d97611891565b5b6000611da687828801611ade565b9450506020611db787828801611ade565b9350506040611dc887828801611a29565b925050606085013567ffffffffffffffff811115611de957611de8611896565b5b611df587828801611d50565b91505092959194509250565b60008060408385031215611e1857611e17611891565b5b6000611e2685828601611ade565b9250506020611e3785828601611ade565b9150509250929050565b600067ffffffffffffffff821115611e5c57611e5b611c53565b5b611e658261199c565b9050602081019050919050565b6000611e85611e8084611e41565b611cb3565b905082815260208101848484011115611ea157611ea0611c4e565b5b611eac848285611cff565b509392505050565b600082601f830112611ec957611ec8611c49565b5b8135611ed9848260208601611e72565b91505092915050565b60008060408385031215611ef957611ef8611891565b5b6000611f0785828601611ade565b925050602083013567ffffffffffffffff811115611f2857611f27611896565b5b611f3485828601611eb4565b9150509250929050565b7f4e487b7100000000000000000000000000000000000000000000000000000000600052602260045260246000fd5b60006002820490506001821680611f8557607f821691505b602082108103611f9857611f97611f3e565b5b50919050565b6000606082019050611fb36000830186611a9d565b611fc06020830185611bb3565b611fcd6040830184611a9d565b949350505050565b600081905092915050565b6000611feb82611956565b611ff58185611fd5565b9350612005818560208601611972565b80840191505092915050565b600061201d8285611fe0565b91506120298284611fe0565b91508190509392505050565b7f4f6e6c792061646d696e2063616e2063616c6c20746869732066756e6374696f60008201527f6e00000000000000000000000000000000000000000000000000000000000000602082015250565b6000612091602183611961565b915061209c82612035565b604082019050919050565b600060208201905081810360008301526120c081612084565b9050919050565b7f4e487b7100000000000000000000000000000000000000000000000000000000600052601160045260246000fd5b600061210182611a08565b915061210c83611a08565b9250828201905080821115612124576121236120c7565b5b92915050565b600081519050919050565b600082825260208201905092915050565b60006121518261212a565b61215b8185612135565b935061216b818560208601611972565b6121748161199c565b840191505092915050565b60006080820190506121946000830187611a9d565b6121a16020830186611a9d565b6121ae6040830185611bb3565b81810360608301526121c08184612146565b905095945050505050565b6000815190506121da816118c7565b92915050565b6000602082840312156121f6576121f5611891565b5b6000612204848285016121cb565b91505092915050565b60008190508160005260206000209050919050565b60006020601f8301049050919050565b600082821b905092915050565b60006008830261226f7fffffffffffffffffffffffffffffffffffffffffffffffffffffffffffffffff82612232565b6122798683612232565b95508019841693508086168417925050509392505050565b6000819050919050565b60006122b66122b16122ac84611a08565b612291565b611a08565b9050919050565b6000819050919050565b6122d08361229b565b6122e46122dc826122bd565b84845461223f565b825550505050565b600090565b6122f96122ec565b6123048184846122c7565b505050565b5b818110156123285761231d6000826122f1565b60018101905061230a565b5050565b601f82111561236d5761233e8161220d565b61234784612222565b81016020851015612356578190505b61236a61236285612222565b830182612309565b50505b505050565b600082821c905092915050565b600061239060001984600802612372565b1980831691505092915050565b60006123a9838361237f565b9150826002028217905092915050565b6123c282611956565b67ffffffffffffffff8111156123db576123da611c53565b5b6123e58254611f6d565b6123f082828561232c565b600060209050601f8311600181146124235760008415612411578287015190505b61241b858261239d565b865550612483565b601f1984166124318661220d565b60005b8281101561245957848901518255600182019150602085019450602081019050612434565b868310156124765784890151612472601f89168261237f565b8355505b6001600288020188555050505b505050505050565b60006040820190506124a06000830185611a9d565b6124ad6020830184611bb3565b9392505050565b7f4e487b7100000000000000000000000000000000000000000000000000000000600052601260045260246000fdfea2646970667358221220701e18a23224b217ab9b937210844b95505d37b3d8845c704e6243ac48dbc64d64736f6c63430008140033",
  "linkReferences": {},
  "deployedLinkReferences": {}
}